{
  "contractName": "Student",
  "abi": [
    {
      "constant": true,
      "inputs": [
        {
          "name": "",
          "type": "uint256"
        }
      ],
      "name": "students",
      "outputs": [
        {
          "name": "id",
          "type": "uint256"
        },
        {
          "name": "name",
          "type": "string"
        },
        {
          "name": "SSCScore",
          "type": "uint256"
        },
        {
          "name": "HSCScore",
          "type": "uint256"
        },
        {
          "name": "aadhaarNo",
          "type": "uint256"
        },
        {
          "name": "dateOfBirth",
          "type": "string"
        },
        {
          "name": "annualIncome",
          "type": "uint256"
        },
        {
          "name": "education",
          "type": "string"
        },
        {
          "name": "currentYear",
          "type": "string"
        },
        {
          "name": "stuScholarship",
          "type": "string"
        }
      ],
      "payable": false,
      "stateMutability": "view",
      "type": "function",
      "signature": "0x06ead22e"
    },
    {
      "constant": true,
      "inputs": [],
      "name": "stuCount",
      "outputs": [
        {
          "name": "",
          "type": "uint256"
        }
      ],
      "payable": false,
      "stateMutability": "view",
      "type": "function",
      "signature": "0x2160fc02"
    },
    {
      "constant": false,
      "inputs": [
        {
          "name": "_name",
          "type": "string"
        },
        {
          "name": "SSC",
          "type": "uint256"
        },
        {
          "name": "HSC",
          "type": "uint256"
        },
        {
          "name": "aadhaar",
          "type": "uint256"
        },
        {
          "name": "dob",
          "type": "string"
        },
        {
          "name": "income",
          "type": "uint256"
        },
        {
          "name": "education",
          "type": "string"
        },
        {
          "name": "curYear",
          "type": "string"
        },
        {
          "name": "sDetails",
          "type": "string"
        }
      ],
      "name": "_setStudentInfo",
      "outputs": [],
      "payable": false,
      "stateMutability": "nonpayable",
      "type": "function",
      "signature": "0x8c3f7fbd"
    },
    {
      "constant": true,
      "inputs": [
        {
          "name": "enterIncome",
          "type": "uint256"
        },
        {
          "name": "originalIncome",
          "type": "uint256"
        }
      ],
      "name": "validateIncome",
      "outputs": [
        {
          "name": "",
          "type": "string"
        }
      ],
      "payable": false,
      "stateMutability": "pure",
      "type": "function",
      "signature": "0x4def7de6"
    },
    {
      "constant": true,
      "inputs": [
        {
          "name": "i",
          "type": "uint256"
        }
      ],
      "name": "getName",
      "outputs": [
        {
          "name": "",
          "type": "string"
        }
      ],
      "payable": false,
      "stateMutability": "view",
      "type": "function",
      "signature": "0x6b8ff574"
    },
    {
      "constant": true,
      "inputs": [
        {
          "name": "i",
          "type": "uint256"
        }
      ],
      "name": "getId",
      "outputs": [
        {
          "name": "",
          "type": "uint256"
        }
      ],
      "payable": false,
      "stateMutability": "view",
      "type": "function",
      "signature": "0x545a153a"
    },
    {
      "constant": true,
      "inputs": [
        {
          "name": "i",
          "type": "uint256"
        }
      ],
      "name": "getSSC",
      "outputs": [
        {
          "name": "",
          "type": "uint256"
        }
      ],
      "payable": false,
      "stateMutability": "view",
      "type": "function",
      "signature": "0x30b62606"
    },
    {
      "constant": true,
      "inputs": [
        {
          "name": "i",
          "type": "uint256"
        }
      ],
      "name": "getHSC",
      "outputs": [
        {
          "name": "",
          "type": "uint256"
        }
      ],
      "payable": false,
      "stateMutability": "view",
      "type": "function",
      "signature": "0x6ff7e60a"
    },
    {
      "constant": true,
      "inputs": [
        {
          "name": "i",
          "type": "uint256"
        }
      ],
      "name": "getAadhaar",
      "outputs": [
        {
          "name": "",
          "type": "uint256"
        }
      ],
      "payable": false,
      "stateMutability": "view",
      "type": "function",
      "signature": "0xb98ab65f"
    },
    {
      "constant": true,
      "inputs": [
        {
          "name": "i",
          "type": "uint256"
        }
      ],
      "name": "getDob",
      "outputs": [
        {
          "name": "",
          "type": "string"
        }
      ],
      "payable": false,
      "stateMutability": "view",
      "type": "function",
      "signature": "0x2013fd1e"
    },
    {
      "constant": true,
      "inputs": [
        {
          "name": "i",
          "type": "uint256"
        }
      ],
      "name": "getIncome",
      "outputs": [
        {
          "name": "",
          "type": "uint256"
        }
      ],
      "payable": false,
      "stateMutability": "view",
      "type": "function",
      "signature": "0x85791510"
    },
    {
      "constant": true,
      "inputs": [
        {
          "name": "i",
          "type": "uint256"
        }
      ],
      "name": "getEducation",
      "outputs": [
        {
          "name": "",
          "type": "string"
        }
      ],
      "payable": false,
      "stateMutability": "view",
      "type": "function",
      "signature": "0xf96e32f8"
    },
    {
      "constant": true,
      "inputs": [
        {
          "name": "i",
          "type": "uint256"
        }
      ],
      "name": "getcurYear",
      "outputs": [
        {
          "name": "",
          "type": "string"
        }
      ],
      "payable": false,
      "stateMutability": "view",
      "type": "function",
      "signature": "0x4965c63e"
    },
    {
      "constant": true,
      "inputs": [
        {
          "name": "i",
          "type": "uint256"
        }
      ],
      "name": "getsDetails",
      "outputs": [
        {
          "name": "",
          "type": "string"
        }
      ],
      "payable": false,
      "stateMutability": "view",
      "type": "function",
      "signature": "0x6058d703"
    }
  ],
  "bytecode": "0x608060405234801561001057600080fd5b506116b8806100206000396000f3fe6080604052600436106100d0576000357c0100000000000000000000000000000000000000000000000000000000900463ffffffff16806306ead22e146100d55780632013fd1e1461035c5780632160fc021461041057806330b626061461043b5780634965c63e1461048a5780634def7de61461053e578063545a153a146105fc5780636058d7031461064b5780636b8ff574146106ff5780636ff7e60a146107b357806385791510146108025780638c3f7fbd14610851578063b98ab65f14610b9e578063f96e32f814610bed575b600080fd5b3480156100e157600080fd5b5061010e600480360360208110156100f857600080fd5b8101908080359060200190929190505050610ca1565b604051808b8152602001806020018a81526020018981526020018881526020018060200187815260200180602001806020018060200186810386528f818151815260200191508051906020019080838360005b8381101561017c578082015181840152602081019050610161565b50505050905090810190601f1680156101a95780820380516001836020036101000a031916815260200191505b5086810385528b818151815260200191508051906020019080838360005b838110156101e25780820151818401526020810190506101c7565b50505050905090810190601f16801561020f5780820380516001836020036101000a031916815260200191505b50868103845289818151815260200191508051906020019080838360005b8381101561024857808201518184015260208101905061022d565b50505050905090810190601f1680156102755780820380516001836020036101000a031916815260200191505b50868103835288818151815260200191508051906020019080838360005b838110156102ae578082015181840152602081019050610293565b50505050905090810190601f1680156102db5780820380516001836020036101000a031916815260200191505b50868103825287818151815260200191508051906020019080838360005b838110156103145780820151818401526020810190506102f9565b50505050905090810190601f1680156103415780820380516001836020036101000a031916815260200191505b509f5050505050505050505050505050505060405180910390f35b34801561036857600080fd5b506103956004803603602081101561037f57600080fd5b8101908080359060200190929190505050610fed565b6040518080602001828103825283818151815260200191508051906020019080838360005b838110156103d55780820151818401526020810190506103ba565b50505050905090810190601f1680156104025780820380516001836020036101000a031916815260200191505b509250505060405180910390f35b34801561041c57600080fd5b506104256110a4565b6040518082815260200191505060405180910390f35b34801561044757600080fd5b506104746004803603602081101561045e57600080fd5b81019080803590602001909291905050506110aa565b6040518082815260200191505060405180910390f35b34801561049657600080fd5b506104c3600480360360208110156104ad57600080fd5b81019080803590602001909291905050506110c9565b6040518080602001828103825283818151815260200191508051906020019080838360005b838110156105035780820151818401526020810190506104e8565b50505050905090810190601f1680156105305780820380516001836020036101000a031916815260200191505b509250505060405180910390f35b34801561054a57600080fd5b506105816004803603604081101561056157600080fd5b810190808035906020019092919080359060200190929190505050611180565b6040518080602001828103825283818151815260200191508051906020019080838360005b838110156105c15780820151818401526020810190506105a6565b50505050905090810190601f1680156105ee5780820380516001836020036101000a031916815260200191505b509250505060405180910390f35b34801561060857600080fd5b506106356004803603602081101561061f57600080fd5b8101908080359060200190929190505050611206565b6040518082815260200191505060405180910390f35b34801561065757600080fd5b506106846004803603602081101561066e57600080fd5b8101908080359060200190929190505050611225565b6040518080602001828103825283818151815260200191508051906020019080838360005b838110156106c45780820151818401526020810190506106a9565b50505050905090810190601f1680156106f15780820380516001836020036101000a031916815260200191505b509250505060405180910390f35b34801561070b57600080fd5b506107386004803603602081101561072257600080fd5b81019080803590602001909291905050506112dc565b6040518080602001828103825283818151815260200191508051906020019080838360005b8381101561077857808201518184015260208101905061075d565b50505050905090810190601f1680156107a55780820380516001836020036101000a031916815260200191505b509250505060405180910390f35b3480156107bf57600080fd5b506107ec600480360360208110156107d657600080fd5b8101908080359060200190929190505050611393565b6040518082815260200191505060405180910390f35b34801561080e57600080fd5b5061083b6004803603602081101561082557600080fd5b81019080803590602001909291905050506113b2565b6040518082815260200191505060405180910390f35b34801561085d57600080fd5b50610b9c600480360361012081101561087557600080fd5b810190808035906020019064010000000081111561089257600080fd5b8201836020820111156108a457600080fd5b803590602001918460018302840111640100000000831117156108c657600080fd5b91908080601f016020809104026020016040519081016040528093929190818152602001838380828437600081840152601f19601f8201169050808301925050505050505091929192908035906020019092919080359060200190929190803590602001909291908035906020019064010000000081111561094757600080fd5b82018360208201111561095957600080fd5b8035906020019184600183028401116401000000008311171561097b57600080fd5b91908080601f016020809104026020016040519081016040528093929190818152602001838380828437600081840152601f19601f82011690508083019250505050505050919291929080359060200190929190803590602001906401000000008111156109e857600080fd5b8201836020820111156109fa57600080fd5b80359060200191846001830284011164010000000083111715610a1c57600080fd5b91908080601f016020809104026020016040519081016040528093929190818152602001838380828437600081840152601f19601f82011690508083019250505050505050919291929080359060200190640100000000811115610a7f57600080fd5b820183602082011115610a9157600080fd5b80359060200191846001830284011164010000000083111715610ab357600080fd5b91908080601f016020809104026020016040519081016040528093929190818152602001838380828437600081840152601f19601f82011690508083019250505050505050919291929080359060200190640100000000811115610b1657600080fd5b820183602082011115610b2857600080fd5b80359060200191846001830284011164010000000083111715610b4a57600080fd5b91908080601f016020809104026020016040519081016040528093929190818152602001838380828437600081840152601f19601f8201169050808301925050505050505091929192905050506113d1565b005b348015610baa57600080fd5b50610bd760048036036020811015610bc157600080fd5b8101908080359060200190929190505050611511565b6040518082815260200191505060405180910390f35b348015610bf957600080fd5b50610c2660048036036020811015610c1057600080fd5b8101908080359060200190929190505050611530565b6040518080602001828103825283818151815260200191508051906020019080838360005b83811015610c66578082015181840152602081019050610c4b565b50505050905090810190601f168015610c935780820380516001836020036101000a031916815260200191505b509250505060405180910390f35b6000602052806000526040600020600091509050806000015490806001018054600181600116156101000203166002900480601f016020809104026020016040519081016040528092919081815260200182805460018160011615610100020316600290048015610d535780601f10610d2857610100808354040283529160200191610d53565b820191906000526020600020905b815481529060010190602001808311610d3657829003601f168201915b505050505090806002015490806003015490806004015490806005018054600181600116156101000203166002900480601f016020809104026020016040519081016040528092919081815260200182805460018160011615610100020316600290048015610e035780601f10610dd857610100808354040283529160200191610e03565b820191906000526020600020905b815481529060010190602001808311610de657829003601f168201915b505050505090806006015490806007018054600181600116156101000203166002900480601f016020809104026020016040519081016040528092919081815260200182805460018160011615610100020316600290048015610ea75780601f10610e7c57610100808354040283529160200191610ea7565b820191906000526020600020905b815481529060010190602001808311610e8a57829003601f168201915b505050505090806008018054600181600116156101000203166002900480601f016020809104026020016040519081016040528092919081815260200182805460018160011615610100020316600290048015610f455780601f10610f1a57610100808354040283529160200191610f45565b820191906000526020600020905b815481529060010190602001808311610f2857829003601f168201915b505050505090806009018054600181600116156101000203166002900480601f016020809104026020016040519081016040528092919081815260200182805460018160011615610100020316600290048015610fe35780601f10610fb857610100808354040283529160200191610fe3565b820191906000526020600020905b815481529060010190602001808311610fc657829003601f168201915b505050505090508a565b60606000808381526020019081526020016000206005018054600181600116156101000203166002900480601f0160208091040260200160405190810160405280929190818152602001828054600181600116156101000203166002900480156110985780601f1061106d57610100808354040283529160200191611098565b820191906000526020600020905b81548152906001019060200180831161107b57829003601f168201915b50505050509050919050565b60015481565b6000806000838152602001908152602001600020600201549050919050565b60606000808381526020019081526020016000206008018054600181600116156101000203166002900480601f0160208091040260200160405190810160405280929190818152602001828054600181600116156101000203166002900480156111745780601f1061114957610100808354040283529160200191611174565b820191906000526020600020905b81548152906001019060200180831161115757829003601f168201915b50505050509050919050565b6060818310156111c7576040805190810160405280600781526020017f696e76616c6964000000000000000000000000000000000000000000000000008152509050611200565b6040805190810160405280600581526020017f76616c696400000000000000000000000000000000000000000000000000000081525090505b92915050565b6000806000838152602001908152602001600020600001549050919050565b60606000808381526020019081526020016000206009018054600181600116156101000203166002900480601f0160208091040260200160405190810160405280929190818152602001828054600181600116156101000203166002900480156112d05780601f106112a5576101008083540402835291602001916112d0565b820191906000526020600020905b8154815290600101906020018083116112b357829003601f168201915b50505050509050919050565b60606000808381526020019081526020016000206001018054600181600116156101000203166002900480601f0160208091040260200160405190810160405280929190818152602001828054600181600116156101000203166002900480156113875780601f1061135c57610100808354040283529160200191611387565b820191906000526020600020905b81548152906001019060200180831161136a57829003601f168201915b50505050509050919050565b6000806000838152602001908152602001600020600301549050919050565b6000806000838152602001908152602001600020600601549050919050565b6001600081548092919060010191905055506101406040519081016040528060015481526020018a8152602001898152602001888152602001878152602001868152602001858152602001848152602001838152602001828152506000808881526020019081526020016000206000820151816000015560208201518160010190805190602001906114649291906115e7565b5060408201518160020155606082015181600301556080820151816004015560a082015181600501908051906020019061149f9291906115e7565b5060c0820151816006015560e08201518160070190805190602001906114c69291906115e7565b506101008201518160080190805190602001906114e49291906115e7565b506101208201518160090190805190602001906115029291906115e7565b50905050505050505050505050565b6000806000838152602001908152602001600020600401549050919050565b60606000808381526020019081526020016000206007018054600181600116156101000203166002900480601f0160208091040260200160405190810160405280929190818152602001828054600181600116156101000203166002900480156115db5780601f106115b0576101008083540402835291602001916115db565b820191906000526020600020905b8154815290600101906020018083116115be57829003601f168201915b50505050509050919050565b828054600181600116156101000203166002900490600052602060002090601f016020900481019282601f1061162857805160ff1916838001178555611656565b82800160010185558215611656579182015b8281111561165557825182559160200191906001019061163a565b5b5090506116639190611667565b5090565b61168991905b8082111561168557600081600090555060010161166d565b5090565b9056fea165627a7a72305820ffd0aab174f67896b3fc0579f94ab78651f4f467e1306d6cea096ed55853d8a80029",
  "source": "pragma solidity ^0.5.0;\n\ncontract Student{\n\n    struct student{\n        uint id;\n        string name;\n        uint SSCScore;\n        uint HSCScore;\n        uint aadhaarNo;\n        string dateOfBirth;\n        uint annualIncome;\n        string education;\n        string currentYear;\n        string stuScholarship;\n    }\n\n    mapping(uint => student) public students;\n    uint public stuCount;\n\n    function _setStudentInfo(\n        string memory _name, uint SSC, uint HSC, uint aadhaar, string memory dob, uint income, \n        string memory education, string memory curYear, string memory sDetails) public{\n\n        stuCount++;\n        students[aadhaar] = student(stuCount, _name, SSC, HSC, aadhaar, dob, income, education, curYear, sDetails);\n        \n    }\n\n    function validateIncome(uint enterIncome, uint originalIncome) public pure returns(string memory){\n        if(enterIncome < originalIncome){  //check if user enters less income than original in order o get scholarship\n            return \"invalid\";\n        }\n        else{\n            return \"valid\";\n        }\n    }\n\n    function getName(uint i) public view returns(string memory){\n        return students[i].name;\n    }\n    \n    function getId(uint i) public view returns(uint){\n        return students[i].id;\n    }\n\n    function getSSC(uint i) public view returns(uint){\n        return students[i].SSCScore;\n    }\n\n    function getHSC(uint i) public view returns(uint){\n        return students[i].HSCScore;\n    }\n\n    function getAadhaar(uint i) public view returns(uint){\n        return students[i].aadhaarNo;\n    }\n\n    function getDob(uint i) public view returns(string memory){\n        return students[i].dateOfBirth;\n    }\n\n    function getIncome(uint i) public view returns(uint){\n        return students[i].annualIncome;\n    }\n\n    function getEducation(uint i) public view returns(string memory){\n        return students[i].education;\n    }\n\n    function getcurYear(uint i) public view returns(string memory){\n        return students[i].currentYear;\n    }\n\n    function getsDetails(uint i) public view returns(string memory){\n        return students[i].stuScholarship;\n    }\n\n}\n",
  "sourcePath": "C:/Users/ANAND/Desktop/Harshita/scholarship/Scholarnet/contracts/Student.sol",
  "compiler": {
    "name": "solc",
    "version": "0.5.0+commit.1d4f565a.Emscripten.clang"
  },
  "schemaVersion": "3.0.0",
  "updatedAt": "2019-02-10T06:20:22.125Z",
  "devdoc": {
    "methods": {}
  },
  "userdoc": {
    "methods": {}
  }
}