{
  "contractName": "Student",
  "abi": [
    {
      "constant": true,
      "inputs": [
        {
          "name": "",
          "type": "uint256"
        }
      ],
      "name": "students",
      "outputs": [
        {
          "name": "id",
          "type": "uint256"
        },
        {
          "name": "name",
          "type": "string"
        },
        {
          "name": "SSCScore",
          "type": "uint256"
        },
        {
          "name": "HSCScore",
          "type": "uint256"
        },
        {
          "name": "adharNo",
          "type": "uint256"
        },
        {
          "name": "dateOfBirth",
          "type": "string"
        },
        {
          "name": "annualIncome",
          "type": "uint256"
        },
        {
          "name": "education",
          "type": "string"
        },
        {
          "name": "currentYear",
          "type": "string"
        },
        {
          "components": [
            {
              "name": "gotScholarship",
              "type": "bool"
            },
            {
              "name": "scholarshipDetails",
              "type": "string"
            }
          ],
          "name": "stuScholarship",
          "type": "tuple"
        }
      ],
      "payable": false,
      "stateMutability": "view",
      "type": "function"
    },
    {
      "constant": true,
      "inputs": [],
      "name": "stuCount",
      "outputs": [
        {
          "name": "",
          "type": "uint256"
        }
      ],
      "payable": false,
      "stateMutability": "view",
      "type": "function"
    },
    {
      "constant": false,
      "inputs": [
        {
          "name": "_name",
          "type": "string"
        },
        {
          "name": "SSC",
          "type": "uint256"
        },
        {
          "name": "HSC",
          "type": "uint256"
        },
        {
          "name": "aadhar",
          "type": "uint256"
        },
        {
          "name": "dob",
          "type": "string"
        },
        {
          "name": "income",
          "type": "uint256"
        },
        {
          "name": "education",
          "type": "string"
        },
        {
          "name": "curYear",
          "type": "string"
        },
        {
          "name": "sGot",
          "type": "bool"
        },
        {
          "name": "sDetails",
          "type": "string"
        }
      ],
      "name": "setStudentInfo",
      "outputs": [],
      "payable": false,
      "stateMutability": "nonpayable",
      "type": "function"
    },
    {
      "constant": true,
      "inputs": [
        {
          "name": "i",
          "type": "uint256"
        }
      ],
      "name": "getName",
      "outputs": [
        {
          "name": "",
          "type": "string"
        }
      ],
      "payable": false,
      "stateMutability": "view",
      "type": "function"
    },
    {
      "constant": true,
      "inputs": [
        {
          "name": "i",
          "type": "uint256"
        }
      ],
      "name": "getId",
      "outputs": [
        {
          "name": "",
          "type": "uint256"
        }
      ],
      "payable": false,
      "stateMutability": "view",
      "type": "function"
    },
    {
      "constant": true,
      "inputs": [
        {
          "name": "i",
          "type": "uint256"
        }
      ],
      "name": "getSSC",
      "outputs": [
        {
          "name": "",
          "type": "uint256"
        }
      ],
      "payable": false,
      "stateMutability": "view",
      "type": "function"
    },
    {
      "constant": true,
      "inputs": [
        {
          "name": "i",
          "type": "uint256"
        }
      ],
      "name": "getHSC",
      "outputs": [
        {
          "name": "",
          "type": "uint256"
        }
      ],
      "payable": false,
      "stateMutability": "view",
      "type": "function"
    },
    {
      "constant": true,
      "inputs": [
        {
          "name": "i",
          "type": "uint256"
        }
      ],
      "name": "getAdhar",
      "outputs": [
        {
          "name": "",
          "type": "uint256"
        }
      ],
      "payable": false,
      "stateMutability": "view",
      "type": "function"
    },
    {
      "constant": true,
      "inputs": [
        {
          "name": "i",
          "type": "uint256"
        }
      ],
      "name": "getDob",
      "outputs": [
        {
          "name": "",
          "type": "string"
        }
      ],
      "payable": false,
      "stateMutability": "view",
      "type": "function"
    },
    {
      "constant": true,
      "inputs": [
        {
          "name": "i",
          "type": "uint256"
        }
      ],
      "name": "getIncome",
      "outputs": [
        {
          "name": "",
          "type": "uint256"
        }
      ],
      "payable": false,
      "stateMutability": "view",
      "type": "function"
    },
    {
      "constant": true,
      "inputs": [
        {
          "name": "i",
          "type": "uint256"
        }
      ],
      "name": "getEducation",
      "outputs": [
        {
          "name": "",
          "type": "string"
        }
      ],
      "payable": false,
      "stateMutability": "view",
      "type": "function"
    },
    {
      "constant": true,
      "inputs": [
        {
          "name": "i",
          "type": "uint256"
        }
      ],
      "name": "getcurYear",
      "outputs": [
        {
          "name": "",
          "type": "string"
        }
      ],
      "payable": false,
      "stateMutability": "view",
      "type": "function"
    },
    {
      "constant": true,
      "inputs": [
        {
          "name": "i",
          "type": "uint256"
        }
      ],
      "name": "getScholarship",
      "outputs": [
        {
          "name": "",
          "type": "bool"
        }
      ],
      "payable": false,
      "stateMutability": "view",
      "type": "function"
    },
    {
      "constant": true,
      "inputs": [
        {
          "name": "i",
          "type": "uint256"
        }
      ],
      "name": "getsDetails",
      "outputs": [
        {
          "name": "",
          "type": "string"
        }
      ],
      "payable": false,
      "stateMutability": "view",
      "type": "function"
    }
  ],
  "bytecode": "0x608060405234801561001057600080fd5b506113c7806100206000396000f3006080604052600436106100d0576000357c0100000000000000000000000000000000000000000000000000000000900463ffffffff16806306ead22e146100d55780632013fd1e146102e95780632160fc021461038f57806330b62606146103ba57806331059023146103fb5780634965c63e146105b0578063545a153a146106565780636058d703146106975780636b8ff5741461073d5780636ff7e60a146107e35780638223021e146108245780638579151014610865578063a3bf4f4c146108a6578063f96e32f8146108eb575b600080fd5b3480156100e157600080fd5b5061010060048036038101908080359060200190929190505050610991565b604051808b8152602001806020018a815260200189815260200188815260200180602001878152602001806020018060200186815260200185810385528e818151815260200191508051906020019080838360005b83811015610170578082015181840152602081019050610155565b50505050905090810190601f16801561019d5780820380516001836020036101000a031916815260200191505b5085810384528a818151815260200191508051906020019080838360005b838110156101d65780820151818401526020810190506101bb565b50505050905090810190601f1680156102035780820380516001836020036101000a031916815260200191505b50858103835288818151815260200191508051906020019080838360005b8381101561023c578082015181840152602081019050610221565b50505050905090810190601f1680156102695780820380516001836020036101000a031916815260200191505b50858103825287818151815260200191508051906020019080838360005b838110156102a2578082015181840152602081019050610287565b50505050905090810190601f1680156102cf5780820380516001836020036101000a031916815260200191505b509e50505050505050505050505050505060405180910390f35b3480156102f557600080fd5b5061031460048036038101908080359060200190929190505050610d0c565b6040518080602001828103825283818151815260200191508051906020019080838360005b83811015610354578082015181840152602081019050610339565b50505050905090810190601f1680156103815780820380516001836020036101000a031916815260200191505b509250505060405180910390f35b34801561039b57600080fd5b506103a4610dc3565b6040518082815260200191505060405180910390f35b3480156103c657600080fd5b506103e560048036038101908080359060200190929190505050610dc9565b6040518082815260200191505060405180910390f35b34801561040757600080fd5b506105ae600480360381019080803590602001908201803590602001908080601f0160208091040260200160405190810160405280939291908181526020018383808284378201915050505050509192919290803590602001909291908035906020019092919080359060200190929190803590602001908201803590602001908080601f016020809104026020016040519081016040528093929190818152602001838380828437820191505050505050919291929080359060200190929190803590602001908201803590602001908080601f0160208091040260200160405190810160405280939291908181526020018383808284378201915050505050509192919290803590602001908201803590602001908080601f0160208091040260200160405190810160405280939291908181526020018383808284378201915050505050509192919290803515159060200190929190803590602001908201803590602001908080601f0160208091040260200160405190810160405280939291908181526020018383808284378201915050505050509192919290505050610de8565b005b3480156105bc57600080fd5b506105db60048036038101908080359060200190929190505050610f6c565b6040518080602001828103825283818151815260200191508051906020019080838360005b8381101561061b578082015181840152602081019050610600565b50505050905090810190601f1680156106485780820380516001836020036101000a031916815260200191505b509250505060405180910390f35b34801561066257600080fd5b5061068160048036038101908080359060200190929190505050611023565b6040518082815260200191505060405180910390f35b3480156106a357600080fd5b506106c260048036038101908080359060200190929190505050611042565b6040518080602001828103825283818151815260200191508051906020019080838360005b838110156107025780820151818401526020810190506106e7565b50505050905090810190601f16801561072f5780820380516001836020036101000a031916815260200191505b509250505060405180910390f35b34801561074957600080fd5b50610768600480360381019080803590602001909291905050506110fc565b6040518080602001828103825283818151815260200191508051906020019080838360005b838110156107a857808201518184015260208101905061078d565b50505050905090810190601f1680156107d55780820380516001836020036101000a031916815260200191505b509250505060405180910390f35b3480156107ef57600080fd5b5061080e600480360381019080803590602001909291905050506111b3565b6040518082815260200191505060405180910390f35b34801561083057600080fd5b5061084f600480360381019080803590602001909291905050506111d2565b6040518082815260200191505060405180910390f35b34801561087157600080fd5b50610890600480360381019080803590602001909291905050506111f1565b6040518082815260200191505060405180910390f35b3480156108b257600080fd5b506108d160048036038101908080359060200190929190505050611210565b604051808215151515815260200191505060405180910390f35b3480156108f757600080fd5b506109166004803603810190808035906020019092919050505061123f565b6040518080602001828103825283818151815260200191508051906020019080838360005b8381101561095657808201518184015260208101905061093b565b50505050905090810190601f1680156109835780820380516001836020036101000a031916815260200191505b509250505060405180910390f35b6000602052806000526040600020600091509050806000015490806001018054600181600116156101000203166002900480601f016020809104026020016040519081016040528092919081815260200182805460018160011615610100020316600290048015610a435780601f10610a1857610100808354040283529160200191610a43565b820191906000526020600020905b815481529060010190602001808311610a2657829003601f168201915b505050505090806002015490806003015490806004015490806005018054600181600116156101000203166002900480601f016020809104026020016040519081016040528092919081815260200182805460018160011615610100020316600290048015610af35780601f10610ac857610100808354040283529160200191610af3565b820191906000526020600020905b815481529060010190602001808311610ad657829003601f168201915b505050505090806006015490806007018054600181600116156101000203166002900480601f016020809104026020016040519081016040528092919081815260200182805460018160011615610100020316600290048015610b975780601f10610b6c57610100808354040283529160200191610b97565b820191906000526020600020905b815481529060010190602001808311610b7a57829003601f168201915b505050505090806008018054600181600116156101000203166002900480601f016020809104026020016040519081016040528092919081815260200182805460018160011615610100020316600290048015610c355780601f10610c0a57610100808354040283529160200191610c35565b820191906000526020600020905b815481529060010190602001808311610c1857829003601f168201915b505050505090806009016040805190810160405290816000820160009054906101000a900460ff16151515158152602001600182018054600181600116156101000203166002900480601f016020809104026020016040519081016040528092919081815260200182805460018160011615610100020316600290048015610cfe5780601f10610cd357610100808354040283529160200191610cfe565b820191906000526020600020905b815481529060010190602001808311610ce157829003601f168201915b50505050508152505090508a565b60606000808381526020019081526020016000206005018054600181600116156101000203166002900480601f016020809104026020016040519081016040528092919081815260200182805460018160011615610100020316600290048015610db75780601f10610d8c57610100808354040283529160200191610db7565b820191906000526020600020905b815481529060010190602001808311610d9a57829003601f168201915b50505050509050919050565b60015481565b6000806000838152602001908152602001600020600201549050919050565b6001600081548092919060010191905055506101406040519081016040528060015481526020018b81526020018a815260200189815260200188815260200187815260200186815260200185815260200184815260200160408051908101604052808515158152602001848152508152506000806001548152602001908152602001600020600082015181600001556020820151816001019080519060200190610e939291906112f6565b5060408201518160020155606082015181600301556080820151816004015560a0820151816005019080519060200190610ece9291906112f6565b5060c0820151816006015560e0820151816007019080519060200190610ef59291906112f6565b50610100820151816008019080519060200190610f139291906112f6565b506101208201518160090160008201518160000160006101000a81548160ff0219169083151502179055506020820151816001019080519060200190610f5a9291906112f6565b50505090505050505050505050505050565b60606000808381526020019081526020016000206008018054600181600116156101000203166002900480601f0160208091040260200160405190810160405280929190818152602001828054600181600116156101000203166002900480156110175780601f10610fec57610100808354040283529160200191611017565b820191906000526020600020905b815481529060010190602001808311610ffa57829003601f168201915b50505050509050919050565b6000806000838152602001908152602001600020600001549050919050565b60606000808381526020019081526020016000206009016001018054600181600116156101000203166002900480601f0160208091040260200160405190810160405280929190818152602001828054600181600116156101000203166002900480156110f05780601f106110c5576101008083540402835291602001916110f0565b820191906000526020600020905b8154815290600101906020018083116110d357829003601f168201915b50505050509050919050565b60606000808381526020019081526020016000206001018054600181600116156101000203166002900480601f0160208091040260200160405190810160405280929190818152602001828054600181600116156101000203166002900480156111a75780601f1061117c576101008083540402835291602001916111a7565b820191906000526020600020905b81548152906001019060200180831161118a57829003601f168201915b50505050509050919050565b6000806000838152602001908152602001600020600301549050919050565b6000806000838152602001908152602001600020600401549050919050565b6000806000838152602001908152602001600020600601549050919050565b600080600083815260200190815260200160002060090160000160009054906101000a900460ff169050919050565b60606000808381526020019081526020016000206007018054600181600116156101000203166002900480601f0160208091040260200160405190810160405280929190818152602001828054600181600116156101000203166002900480156112ea5780601f106112bf576101008083540402835291602001916112ea565b820191906000526020600020905b8154815290600101906020018083116112cd57829003601f168201915b50505050509050919050565b828054600181600116156101000203166002900490600052602060002090601f016020900481019282601f1061133757805160ff1916838001178555611365565b82800160010185558215611365579182015b82811115611364578251825591602001919060010190611349565b5b5090506113729190611376565b5090565b61139891905b8082111561139457600081600090555060010161137c565b5090565b905600a165627a7a723058203234ddd7266398e3b19f8d3abe08f50d69721bdda30f9ef35225ba1c384cdab40029",
  "source": "pragma solidity ^0.4.2;\r\n\r\ncontract Student{\r\n\r\n    struct student{\r\n        uint id;\r\n        string name;\r\n        uint SSCScore;\r\n        uint HSCScore;\r\n        uint adharNo;\r\n        string dateOfBirth;\r\n        uint annualIncome;\r\n        string education;\r\n        string currentYear;\r\n        scholarship stuScholarship;\r\n    }\r\n\r\n    struct scholarship {\r\n        bool gotScholarship;\r\n        string scholarshipDetails;\r\n    }\r\n\r\n    mapping(uint => student) public students;\r\n    uint public stuCount;\r\n\r\n    function setStudentInfo(\r\n        string memory _name, uint SSC, uint HSC, uint aadhar, string memory dob, uint income, \r\n        string memory education, string memory curYear, bool sGot, string memory sDetails) public{\r\n\r\n        stuCount++;\r\n        students[stuCount] = student(stuCount, _name, SSC, HSC, aadhar, dob, income, education, curYear, scholarship(sGot,sDetails));\r\n        \r\n    }\r\n\r\n    function getName(uint i) public view returns(string memory){\r\n        return students[i].name;\r\n    }\r\n    \r\n    function getId(uint i) public view returns(uint){\r\n        return students[i].id;\r\n    }\r\n\r\n    function getSSC(uint i) public view returns(uint){\r\n        return students[i].SSCScore;\r\n    }\r\n\r\n    function getHSC(uint i) public view returns(uint){\r\n        return students[i].HSCScore;\r\n    }\r\n\r\n    function getAdhar(uint i) public view returns(uint){\r\n        return students[i].adharNo;\r\n    }\r\n\r\n    function getDob(uint i) public view returns(string memory){\r\n        return students[i].dateOfBirth;\r\n    }\r\n\r\n    function getIncome(uint i) public view returns(uint){\r\n        return students[i].annualIncome;\r\n    }\r\n\r\n    function getEducation(uint i) public view returns(string memory){\r\n        return students[i].education;\r\n    }\r\n\r\n    function getcurYear(uint i) public view returns(string memory){\r\n        return students[i].currentYear;\r\n    }\r\n\r\n    function getScholarship(uint i) public view returns(bool){\r\n        return students[i].stuScholarship.gotScholarship;\r\n    }\r\n\r\n    function getsDetails(uint i) public view returns(string memory){\r\n        return students[i].stuScholarship.scholarshipDetails;\r\n    }\r\n\r\n}\r\n",
  "sourcePath": "F:\\Project\\blockcahin\\Blockchain Intenship\\Scholarnet\\contracts\\Student.sol",
  "compiler": {
    "name": "solc",
    "version": "0.4.24+commit.e67f0147.Emscripten.clang"
  },
  "schemaVersion": "2.0.1",
  "updatedAt": "2019-01-02T00:47:26.925Z"
}