{
  "contractName": "Student",
  "abi": [
    {
      "constant": true,
      "inputs": [
        {
          "name": "",
          "type": "uint256"
        }
      ],
      "name": "students",
      "outputs": [
        {
          "name": "id",
          "type": "uint256"
        },
        {
          "name": "name",
          "type": "string"
        },
        {
          "name": "SSCScore",
          "type": "uint256"
        },
        {
          "name": "HSCScore",
          "type": "uint256"
        },
        {
          "name": "aadhaarNo",
          "type": "uint256"
        },
        {
          "name": "dateOfBirth",
          "type": "string"
        },
        {
          "name": "annualIncome",
          "type": "uint256"
        },
        {
          "name": "education",
          "type": "string"
        },
        {
          "name": "currentYear",
          "type": "string"
        },
        {
          "name": "stuScholarship",
          "type": "string"
        }
      ],
      "payable": false,
      "stateMutability": "view",
      "type": "function",
      "signature": "0x06ead22e"
    },
    {
      "constant": true,
      "inputs": [],
      "name": "stuCount",
      "outputs": [
        {
          "name": "",
          "type": "uint256"
        }
      ],
      "payable": false,
      "stateMutability": "view",
      "type": "function",
      "signature": "0x2160fc02"
    },
    {
      "constant": false,
      "inputs": [
        {
          "name": "_name",
          "type": "string"
        },
        {
          "name": "SSC",
          "type": "uint256"
        },
        {
          "name": "HSC",
          "type": "uint256"
        },
        {
          "name": "aadhaar",
          "type": "uint256"
        },
        {
          "name": "dob",
          "type": "string"
        },
        {
          "name": "income",
          "type": "uint256"
        },
        {
          "name": "education",
          "type": "string"
        },
        {
          "name": "curYear",
          "type": "string"
        },
        {
          "name": "sDetails",
          "type": "string"
        }
      ],
      "name": "_setStudentInfo",
      "outputs": [],
      "payable": false,
      "stateMutability": "nonpayable",
      "type": "function",
      "signature": "0x8c3f7fbd"
    },
    {
      "constant": true,
      "inputs": [
        {
          "name": "i",
          "type": "uint256"
        }
      ],
      "name": "getName",
      "outputs": [
        {
          "name": "",
          "type": "string"
        }
      ],
      "payable": false,
      "stateMutability": "view",
      "type": "function",
      "signature": "0x6b8ff574"
    },
    {
      "constant": true,
      "inputs": [
        {
          "name": "i",
          "type": "uint256"
        }
      ],
      "name": "getId",
      "outputs": [
        {
          "name": "",
          "type": "uint256"
        }
      ],
      "payable": false,
      "stateMutability": "view",
      "type": "function",
      "signature": "0x545a153a"
    },
    {
      "constant": true,
      "inputs": [
        {
          "name": "i",
          "type": "uint256"
        }
      ],
      "name": "getSSC",
      "outputs": [
        {
          "name": "",
          "type": "uint256"
        }
      ],
      "payable": false,
      "stateMutability": "view",
      "type": "function",
      "signature": "0x30b62606"
    },
    {
      "constant": true,
      "inputs": [
        {
          "name": "i",
          "type": "uint256"
        }
      ],
      "name": "getHSC",
      "outputs": [
        {
          "name": "",
          "type": "uint256"
        }
      ],
      "payable": false,
      "stateMutability": "view",
      "type": "function",
      "signature": "0x6ff7e60a"
    },
    {
      "constant": true,
      "inputs": [
        {
          "name": "i",
          "type": "uint256"
        }
      ],
      "name": "getAadhaar",
      "outputs": [
        {
          "name": "",
          "type": "uint256"
        }
      ],
      "payable": false,
      "stateMutability": "view",
      "type": "function",
      "signature": "0xb98ab65f"
    },
    {
      "constant": true,
      "inputs": [
        {
          "name": "i",
          "type": "uint256"
        }
      ],
      "name": "getDob",
      "outputs": [
        {
          "name": "",
          "type": "string"
        }
      ],
      "payable": false,
      "stateMutability": "view",
      "type": "function",
      "signature": "0x2013fd1e"
    },
    {
      "constant": true,
      "inputs": [
        {
          "name": "i",
          "type": "uint256"
        }
      ],
      "name": "getIncome",
      "outputs": [
        {
          "name": "",
          "type": "uint256"
        }
      ],
      "payable": false,
      "stateMutability": "view",
      "type": "function",
      "signature": "0x85791510"
    },
    {
      "constant": true,
      "inputs": [
        {
          "name": "i",
          "type": "uint256"
        }
      ],
      "name": "getEducation",
      "outputs": [
        {
          "name": "",
          "type": "string"
        }
      ],
      "payable": false,
      "stateMutability": "view",
      "type": "function",
      "signature": "0xf96e32f8"
    },
    {
      "constant": true,
      "inputs": [
        {
          "name": "i",
          "type": "uint256"
        }
      ],
      "name": "getcurYear",
      "outputs": [
        {
          "name": "",
          "type": "string"
        }
      ],
      "payable": false,
      "stateMutability": "view",
      "type": "function",
      "signature": "0x4965c63e"
    },
    {
      "constant": true,
      "inputs": [
        {
          "name": "i",
          "type": "uint256"
        }
      ],
      "name": "getsDetails",
      "outputs": [
        {
          "name": "",
          "type": "string"
        }
      ],
      "payable": false,
      "stateMutability": "view",
      "type": "function",
      "signature": "0x6058d703"
    }
  ],
  "bytecode": "0x608060405234801561001057600080fd5b50611569806100206000396000f3fe6080604052600436106100c5576000357c0100000000000000000000000000000000000000000000000000000000900463ffffffff16806306ead22e146100ca5780632013fd1e146103515780632160fc021461040557806330b62606146104305780634965c63e1461047f578063545a153a146105335780636058d703146105825780636b8ff574146106365780636ff7e60a146106ea57806385791510146107395780638c3f7fbd14610788578063b98ab65f14610ad5578063f96e32f814610b24575b600080fd5b3480156100d657600080fd5b50610103600480360360208110156100ed57600080fd5b8101908080359060200190929190505050610bd8565b604051808b8152602001806020018a81526020018981526020018881526020018060200187815260200180602001806020018060200186810386528f818151815260200191508051906020019080838360005b83811015610171578082015181840152602081019050610156565b50505050905090810190601f16801561019e5780820380516001836020036101000a031916815260200191505b5086810385528b818151815260200191508051906020019080838360005b838110156101d75780820151818401526020810190506101bc565b50505050905090810190601f1680156102045780820380516001836020036101000a031916815260200191505b50868103845289818151815260200191508051906020019080838360005b8381101561023d578082015181840152602081019050610222565b50505050905090810190601f16801561026a5780820380516001836020036101000a031916815260200191505b50868103835288818151815260200191508051906020019080838360005b838110156102a3578082015181840152602081019050610288565b50505050905090810190601f1680156102d05780820380516001836020036101000a031916815260200191505b50868103825287818151815260200191508051906020019080838360005b838110156103095780820151818401526020810190506102ee565b50505050905090810190601f1680156103365780820380516001836020036101000a031916815260200191505b509f5050505050505050505050505050505060405180910390f35b34801561035d57600080fd5b5061038a6004803603602081101561037457600080fd5b8101908080359060200190929190505050610f24565b6040518080602001828103825283818151815260200191508051906020019080838360005b838110156103ca5780820151818401526020810190506103af565b50505050905090810190601f1680156103f75780820380516001836020036101000a031916815260200191505b509250505060405180910390f35b34801561041157600080fd5b5061041a610fdb565b6040518082815260200191505060405180910390f35b34801561043c57600080fd5b506104696004803603602081101561045357600080fd5b8101908080359060200190929190505050610fe1565b6040518082815260200191505060405180910390f35b34801561048b57600080fd5b506104b8600480360360208110156104a257600080fd5b8101908080359060200190929190505050611000565b6040518080602001828103825283818151815260200191508051906020019080838360005b838110156104f85780820151818401526020810190506104dd565b50505050905090810190601f1680156105255780820380516001836020036101000a031916815260200191505b509250505060405180910390f35b34801561053f57600080fd5b5061056c6004803603602081101561055657600080fd5b81019080803590602001909291905050506110b7565b6040518082815260200191505060405180910390f35b34801561058e57600080fd5b506105bb600480360360208110156105a557600080fd5b81019080803590602001909291905050506110d6565b6040518080602001828103825283818151815260200191508051906020019080838360005b838110156105fb5780820151818401526020810190506105e0565b50505050905090810190601f1680156106285780820380516001836020036101000a031916815260200191505b509250505060405180910390f35b34801561064257600080fd5b5061066f6004803603602081101561065957600080fd5b810190808035906020019092919050505061118d565b6040518080602001828103825283818151815260200191508051906020019080838360005b838110156106af578082015181840152602081019050610694565b50505050905090810190601f1680156106dc5780820380516001836020036101000a031916815260200191505b509250505060405180910390f35b3480156106f657600080fd5b506107236004803603602081101561070d57600080fd5b8101908080359060200190929190505050611244565b6040518082815260200191505060405180910390f35b34801561074557600080fd5b506107726004803603602081101561075c57600080fd5b8101908080359060200190929190505050611263565b6040518082815260200191505060405180910390f35b34801561079457600080fd5b50610ad360048036036101208110156107ac57600080fd5b81019080803590602001906401000000008111156107c957600080fd5b8201836020820111156107db57600080fd5b803590602001918460018302840111640100000000831117156107fd57600080fd5b91908080601f016020809104026020016040519081016040528093929190818152602001838380828437600081840152601f19601f8201169050808301925050505050505091929192908035906020019092919080359060200190929190803590602001909291908035906020019064010000000081111561087e57600080fd5b82018360208201111561089057600080fd5b803590602001918460018302840111640100000000831117156108b257600080fd5b91908080601f016020809104026020016040519081016040528093929190818152602001838380828437600081840152601f19601f820116905080830192505050505050509192919290803590602001909291908035906020019064010000000081111561091f57600080fd5b82018360208201111561093157600080fd5b8035906020019184600183028401116401000000008311171561095357600080fd5b91908080601f016020809104026020016040519081016040528093929190818152602001838380828437600081840152601f19601f820116905080830192505050505050509192919290803590602001906401000000008111156109b657600080fd5b8201836020820111156109c857600080fd5b803590602001918460018302840111640100000000831117156109ea57600080fd5b91908080601f016020809104026020016040519081016040528093929190818152602001838380828437600081840152601f19601f82011690508083019250505050505050919291929080359060200190640100000000811115610a4d57600080fd5b820183602082011115610a5f57600080fd5b80359060200191846001830284011164010000000083111715610a8157600080fd5b91908080601f016020809104026020016040519081016040528093929190818152602001838380828437600081840152601f19601f820116905080830192505050505050509192919290505050611282565b005b348015610ae157600080fd5b50610b0e60048036036020811015610af857600080fd5b81019080803590602001909291905050506113c2565b6040518082815260200191505060405180910390f35b348015610b3057600080fd5b50610b5d60048036036020811015610b4757600080fd5b81019080803590602001909291905050506113e1565b6040518080602001828103825283818151815260200191508051906020019080838360005b83811015610b9d578082015181840152602081019050610b82565b50505050905090810190601f168015610bca5780820380516001836020036101000a031916815260200191505b509250505060405180910390f35b6000602052806000526040600020600091509050806000015490806001018054600181600116156101000203166002900480601f016020809104026020016040519081016040528092919081815260200182805460018160011615610100020316600290048015610c8a5780601f10610c5f57610100808354040283529160200191610c8a565b820191906000526020600020905b815481529060010190602001808311610c6d57829003601f168201915b505050505090806002015490806003015490806004015490806005018054600181600116156101000203166002900480601f016020809104026020016040519081016040528092919081815260200182805460018160011615610100020316600290048015610d3a5780601f10610d0f57610100808354040283529160200191610d3a565b820191906000526020600020905b815481529060010190602001808311610d1d57829003601f168201915b505050505090806006015490806007018054600181600116156101000203166002900480601f016020809104026020016040519081016040528092919081815260200182805460018160011615610100020316600290048015610dde5780601f10610db357610100808354040283529160200191610dde565b820191906000526020600020905b815481529060010190602001808311610dc157829003601f168201915b505050505090806008018054600181600116156101000203166002900480601f016020809104026020016040519081016040528092919081815260200182805460018160011615610100020316600290048015610e7c5780601f10610e5157610100808354040283529160200191610e7c565b820191906000526020600020905b815481529060010190602001808311610e5f57829003601f168201915b505050505090806009018054600181600116156101000203166002900480601f016020809104026020016040519081016040528092919081815260200182805460018160011615610100020316600290048015610f1a5780601f10610eef57610100808354040283529160200191610f1a565b820191906000526020600020905b815481529060010190602001808311610efd57829003601f168201915b505050505090508a565b60606000808381526020019081526020016000206005018054600181600116156101000203166002900480601f016020809104026020016040519081016040528092919081815260200182805460018160011615610100020316600290048015610fcf5780601f10610fa457610100808354040283529160200191610fcf565b820191906000526020600020905b815481529060010190602001808311610fb257829003601f168201915b50505050509050919050565b60015481565b6000806000838152602001908152602001600020600201549050919050565b60606000808381526020019081526020016000206008018054600181600116156101000203166002900480601f0160208091040260200160405190810160405280929190818152602001828054600181600116156101000203166002900480156110ab5780601f10611080576101008083540402835291602001916110ab565b820191906000526020600020905b81548152906001019060200180831161108e57829003601f168201915b50505050509050919050565b6000806000838152602001908152602001600020600001549050919050565b60606000808381526020019081526020016000206009018054600181600116156101000203166002900480601f0160208091040260200160405190810160405280929190818152602001828054600181600116156101000203166002900480156111815780601f1061115657610100808354040283529160200191611181565b820191906000526020600020905b81548152906001019060200180831161116457829003601f168201915b50505050509050919050565b60606000808381526020019081526020016000206001018054600181600116156101000203166002900480601f0160208091040260200160405190810160405280929190818152602001828054600181600116156101000203166002900480156112385780601f1061120d57610100808354040283529160200191611238565b820191906000526020600020905b81548152906001019060200180831161121b57829003601f168201915b50505050509050919050565b6000806000838152602001908152602001600020600301549050919050565b6000806000838152602001908152602001600020600601549050919050565b6001600081548092919060010191905055506101406040519081016040528060015481526020018a815260200189815260200188815260200187815260200186815260200185815260200184815260200183815260200182815250600080888152602001908152602001600020600082015181600001556020820151816001019080519060200190611315929190611498565b5060408201518160020155606082015181600301556080820151816004015560a0820151816005019080519060200190611350929190611498565b5060c0820151816006015560e0820151816007019080519060200190611377929190611498565b50610100820151816008019080519060200190611395929190611498565b506101208201518160090190805190602001906113b3929190611498565b50905050505050505050505050565b6000806000838152602001908152602001600020600401549050919050565b60606000808381526020019081526020016000206007018054600181600116156101000203166002900480601f01602080910402602001604051908101604052809291908181526020018280546001816001161561010002031660029004801561148c5780601f106114615761010080835404028352916020019161148c565b820191906000526020600020905b81548152906001019060200180831161146f57829003601f168201915b50505050509050919050565b828054600181600116156101000203166002900490600052602060002090601f016020900481019282601f106114d957805160ff1916838001178555611507565b82800160010185558215611507579182015b828111156115065782518255916020019190600101906114eb565b5b5090506115149190611518565b5090565b61153a91905b8082111561153657600081600090555060010161151e565b5090565b9056fea165627a7a7230582092da6797356bb981582d67d3773e19d437fccd9a9bb18aa78023ad3910d180000029",
  "source": "pragma solidity ^0.5.0;\n\ncontract Student{\n\n    struct student{\n        uint id;\n        string name;\n        uint SSCScore;\n        uint HSCScore;\n        uint aadhaarNo;\n        string dateOfBirth;\n        uint annualIncome;\n        string education;\n        string currentYear;\n        string stuScholarship;\n    }\n\n    mapping(uint => student) public students;\n    uint public stuCount;\n\n    function _setStudentInfo(\n        string memory _name, uint SSC, uint HSC, uint aadhaar, string memory dob, uint income, \n        string memory education, string memory curYear, string memory sDetails) public{\n\n        stuCount++;\n        students[aadhaar] = student(stuCount, _name, SSC, HSC, aadhaar, dob, income, education, curYear, sDetails);\n        \n    }\n\n    function getName(uint i) public view returns(string memory){\n        return students[i].name;\n    }\n    \n    function getId(uint i) public view returns(uint){\n        return students[i].id;\n    }\n\n    function getSSC(uint i) public view returns(uint){\n        return students[i].SSCScore;\n    }\n\n    function getHSC(uint i) public view returns(uint){\n        return students[i].HSCScore;\n    }\n\n    function getAadhaar(uint i) public view returns(uint){\n        return students[i].aadhaarNo;\n    }\n\n    function getDob(uint i) public view returns(string memory){\n        return students[i].dateOfBirth;\n    }\n\n    function getIncome(uint i) public view returns(uint){\n        return students[i].annualIncome;\n    }\n\n    function getEducation(uint i) public view returns(string memory){\n        return students[i].education;\n    }\n\n    function getcurYear(uint i) public view returns(string memory){\n        return students[i].currentYear;\n    }\n\n    function getsDetails(uint i) public view returns(string memory){\n        return students[i].stuScholarship;\n    }\n\n}\n",
  "sourcePath": "C:/Users/ANAND/Desktop/Harshita/scholarship/scholarship-master/Scholarnet/contracts/Student.sol",
  "compiler": {
    "name": "solc",
    "version": "0.5.0+commit.1d4f565a.Emscripten.clang"
  },
  "schemaVersion": "3.0.0",
  "updatedAt": "2019-01-06T13:40:24.552Z",
  "devdoc": {
    "methods": {}
  },
  "userdoc": {
    "methods": {}
  }
}