{
  "contractName": "Student",
  "abi": [
    {
      "constant": true,
      "inputs": [
        {
          "name": "",
          "type": "uint256"
        }
      ],
      "name": "students",
      "outputs": [
        {
          "name": "id",
          "type": "uint256"
        },
        {
          "name": "name",
          "type": "string"
        },
        {
          "name": "SSCScore",
          "type": "uint256"
        },
        {
          "name": "HSCScore",
          "type": "uint256"
        },
        {
          "name": "aadhaarNo",
          "type": "uint256"
        },
        {
          "name": "dateOfBirth",
          "type": "string"
        },
        {
          "name": "annualIncome",
          "type": "uint256"
        },
        {
          "name": "education",
          "type": "string"
        },
        {
          "name": "currentYear",
          "type": "string"
        },
        {
          "components": [
            {
              "name": "scholarshipDetails",
              "type": "string"
            }
          ],
          "name": "stuScholarship",
          "type": "tuple"
        }
      ],
      "payable": false,
      "stateMutability": "view",
      "type": "function"
    },
    {
      "constant": true,
      "inputs": [],
      "name": "stuCount",
      "outputs": [
        {
          "name": "",
          "type": "uint256"
        }
      ],
      "payable": false,
      "stateMutability": "view",
      "type": "function"
    },
    {
      "constant": false,
      "inputs": [
        {
          "name": "_name",
          "type": "string"
        },
        {
          "name": "SSC",
          "type": "uint256"
        },
        {
          "name": "HSC",
          "type": "uint256"
        },
        {
          "name": "aadhaar",
          "type": "uint256"
        },
        {
          "name": "dob",
          "type": "string"
        },
        {
          "name": "income",
          "type": "uint256"
        },
        {
          "name": "education",
          "type": "string"
        },
        {
          "name": "curYear",
          "type": "string"
        },
        {
          "name": "sDetails",
          "type": "string"
        }
      ],
      "name": "_setStudentInfo",
      "outputs": [],
      "payable": false,
      "stateMutability": "nonpayable",
      "type": "function"
    },
    {
      "constant": true,
      "inputs": [
        {
          "name": "i",
          "type": "uint256"
        }
      ],
      "name": "getName",
      "outputs": [
        {
          "name": "",
          "type": "string"
        }
      ],
      "payable": false,
      "stateMutability": "view",
      "type": "function"
    },
    {
      "constant": true,
      "inputs": [
        {
          "name": "i",
          "type": "uint256"
        }
      ],
      "name": "getId",
      "outputs": [
        {
          "name": "",
          "type": "uint256"
        }
      ],
      "payable": false,
      "stateMutability": "view",
      "type": "function"
    },
    {
      "constant": true,
      "inputs": [
        {
          "name": "i",
          "type": "uint256"
        }
      ],
      "name": "getSSC",
      "outputs": [
        {
          "name": "",
          "type": "uint256"
        }
      ],
      "payable": false,
      "stateMutability": "view",
      "type": "function"
    },
    {
      "constant": true,
      "inputs": [
        {
          "name": "i",
          "type": "uint256"
        }
      ],
      "name": "getHSC",
      "outputs": [
        {
          "name": "",
          "type": "uint256"
        }
      ],
      "payable": false,
      "stateMutability": "view",
      "type": "function"
    },
    {
      "constant": true,
      "inputs": [
        {
          "name": "i",
          "type": "uint256"
        }
      ],
      "name": "getAadhaar",
      "outputs": [
        {
          "name": "",
          "type": "uint256"
        }
      ],
      "payable": false,
      "stateMutability": "view",
      "type": "function"
    },
    {
      "constant": true,
      "inputs": [
        {
          "name": "i",
          "type": "uint256"
        }
      ],
      "name": "getDob",
      "outputs": [
        {
          "name": "",
          "type": "string"
        }
      ],
      "payable": false,
      "stateMutability": "view",
      "type": "function"
    },
    {
      "constant": true,
      "inputs": [
        {
          "name": "i",
          "type": "uint256"
        }
      ],
      "name": "getIncome",
      "outputs": [
        {
          "name": "",
          "type": "uint256"
        }
      ],
      "payable": false,
      "stateMutability": "view",
      "type": "function"
    },
    {
      "constant": true,
      "inputs": [
        {
          "name": "i",
          "type": "uint256"
        }
      ],
      "name": "getEducation",
      "outputs": [
        {
          "name": "",
          "type": "string"
        }
      ],
      "payable": false,
      "stateMutability": "view",
      "type": "function"
    },
    {
      "constant": true,
      "inputs": [
        {
          "name": "i",
          "type": "uint256"
        }
      ],
      "name": "getcurYear",
      "outputs": [
        {
          "name": "",
          "type": "string"
        }
      ],
      "payable": false,
      "stateMutability": "view",
      "type": "function"
    },
    {
      "constant": true,
      "inputs": [
        {
          "name": "i",
          "type": "uint256"
        }
      ],
      "name": "getsDetails",
      "outputs": [
        {
          "name": "",
          "type": "string"
        }
      ],
      "payable": false,
      "stateMutability": "view",
      "type": "function"
    }
  ],
  "bytecode": "0x608060405234801561001057600080fd5b506112f8806100206000396000f3006080604052600436106100c5576000357c0100000000000000000000000000000000000000000000000000000000900463ffffffff16806306ead22e146100ca5780632013fd1e146102de5780632160fc021461038457806330b62606146103af5780634965c63e146103f0578063545a153a146104965780636058d703146104d75780636b8ff5741461057d5780636ff7e60a1461062357806385791510146106645780638c3f7fbd146106a5578063b98ab65f1461084e578063f96e32f81461088f575b600080fd5b3480156100d657600080fd5b506100f560048036038101908080359060200190929190505050610935565b604051808b8152602001806020018a815260200189815260200188815260200180602001878152602001806020018060200186815260200185810385528e818151815260200191508051906020019080838360005b8381101561016557808201518184015260208101905061014a565b50505050905090810190601f1680156101925780820380516001836020036101000a031916815260200191505b5085810384528a818151815260200191508051906020019080838360005b838110156101cb5780820151818401526020810190506101b0565b50505050905090810190601f1680156101f85780820380516001836020036101000a031916815260200191505b50858103835288818151815260200191508051906020019080838360005b83811015610231578082015181840152602081019050610216565b50505050905090810190601f16801561025e5780820380516001836020036101000a031916815260200191505b50858103825287818151815260200191508051906020019080838360005b8381101561029757808201518184015260208101905061027c565b50505050905090810190601f1680156102c45780820380516001836020036101000a031916815260200191505b509e50505050505050505050505050505060405180910390f35b3480156102ea57600080fd5b5061030960048036038101908080359060200190929190505050610c96565b6040518080602001828103825283818151815260200191508051906020019080838360005b8381101561034957808201518184015260208101905061032e565b50505050905090810190601f1680156103765780820380516001836020036101000a031916815260200191505b509250505060405180910390f35b34801561039057600080fd5b50610399610d4d565b6040518082815260200191505060405180910390f35b3480156103bb57600080fd5b506103da60048036038101908080359060200190929190505050610d53565b6040518082815260200191505060405180910390f35b3480156103fc57600080fd5b5061041b60048036038101908080359060200190929190505050610d72565b6040518080602001828103825283818151815260200191508051906020019080838360005b8381101561045b578082015181840152602081019050610440565b50505050905090810190601f1680156104885780820380516001836020036101000a031916815260200191505b509250505060405180910390f35b3480156104a257600080fd5b506104c160048036038101908080359060200190929190505050610e29565b6040518082815260200191505060405180910390f35b3480156104e357600080fd5b5061050260048036038101908080359060200190929190505050610e48565b6040518080602001828103825283818151815260200191508051906020019080838360005b83811015610542578082015181840152602081019050610527565b50505050905090810190601f16801561056f5780820380516001836020036101000a031916815260200191505b509250505060405180910390f35b34801561058957600080fd5b506105a860048036038101908080359060200190929190505050610f02565b6040518080602001828103825283818151815260200191508051906020019080838360005b838110156105e85780820151818401526020810190506105cd565b50505050905090810190601f1680156106155780820380516001836020036101000a031916815260200191505b509250505060405180910390f35b34801561062f57600080fd5b5061064e60048036038101908080359060200190929190505050610fb9565b6040518082815260200191505060405180910390f35b34801561067057600080fd5b5061068f60048036038101908080359060200190929190505050610fd8565b6040518082815260200191505060405180910390f35b3480156106b157600080fd5b5061084c600480360381019080803590602001908201803590602001908080601f0160208091040260200160405190810160405280939291908181526020018383808284378201915050505050509192919290803590602001909291908035906020019092919080359060200190929190803590602001908201803590602001908080601f016020809104026020016040519081016040528093929190818152602001838380828437820191505050505050919291929080359060200190929190803590602001908201803590602001908080601f0160208091040260200160405190810160405280939291908181526020018383808284378201915050505050509192919290803590602001908201803590602001908080601f0160208091040260200160405190810160405280939291908181526020018383808284378201915050505050509192919290803590602001908201803590602001908080601f0160208091040260200160405190810160405280939291908181526020018383808284378201915050505050509192919290505050610ff7565b005b34801561085a57600080fd5b5061087960048036038101908080359060200190929190505050611151565b6040518082815260200191505060405180910390f35b34801561089b57600080fd5b506108ba60048036038101908080359060200190929190505050611170565b6040518080602001828103825283818151815260200191508051906020019080838360005b838110156108fa5780820151818401526020810190506108df565b50505050905090810190601f1680156109275780820380516001836020036101000a031916815260200191505b509250505060405180910390f35b6000602052806000526040600020600091509050806000015490806001018054600181600116156101000203166002900480601f0160208091040260200160405190810160405280929190818152602001828054600181600116156101000203166002900480156109e75780601f106109bc576101008083540402835291602001916109e7565b820191906000526020600020905b8154815290600101906020018083116109ca57829003601f168201915b505050505090806002015490806003015490806004015490806005018054600181600116156101000203166002900480601f016020809104026020016040519081016040528092919081815260200182805460018160011615610100020316600290048015610a975780601f10610a6c57610100808354040283529160200191610a97565b820191906000526020600020905b815481529060010190602001808311610a7a57829003601f168201915b505050505090806006015490806007018054600181600116156101000203166002900480601f016020809104026020016040519081016040528092919081815260200182805460018160011615610100020316600290048015610b3b5780601f10610b1057610100808354040283529160200191610b3b565b820191906000526020600020905b815481529060010190602001808311610b1e57829003601f168201915b505050505090806008018054600181600116156101000203166002900480601f016020809104026020016040519081016040528092919081815260200182805460018160011615610100020316600290048015610bd95780601f10610bae57610100808354040283529160200191610bd9565b820191906000526020600020905b815481529060010190602001808311610bbc57829003601f168201915b5050505050908060090160206040519081016040529081600082018054600181600116156101000203166002900480601f016020809104026020016040519081016040528092919081815260200182805460018160011615610100020316600290048015610c885780601f10610c5d57610100808354040283529160200191610c88565b820191906000526020600020905b815481529060010190602001808311610c6b57829003601f168201915b50505050508152505090508a565b60606000808381526020019081526020016000206005018054600181600116156101000203166002900480601f016020809104026020016040519081016040528092919081815260200182805460018160011615610100020316600290048015610d415780601f10610d1657610100808354040283529160200191610d41565b820191906000526020600020905b815481529060010190602001808311610d2457829003601f168201915b50505050509050919050565b60015481565b6000806000838152602001908152602001600020600201549050919050565b60606000808381526020019081526020016000206008018054600181600116156101000203166002900480601f016020809104026020016040519081016040528092919081815260200182805460018160011615610100020316600290048015610e1d5780601f10610df257610100808354040283529160200191610e1d565b820191906000526020600020905b815481529060010190602001808311610e0057829003601f168201915b50505050509050919050565b6000806000838152602001908152602001600020600001549050919050565b60606000808381526020019081526020016000206009016000018054600181600116156101000203166002900480601f016020809104026020016040519081016040528092919081815260200182805460018160011615610100020316600290048015610ef65780601f10610ecb57610100808354040283529160200191610ef6565b820191906000526020600020905b815481529060010190602001808311610ed957829003601f168201915b50505050509050919050565b60606000808381526020019081526020016000206001018054600181600116156101000203166002900480601f016020809104026020016040519081016040528092919081815260200182805460018160011615610100020316600290048015610fad5780601f10610f8257610100808354040283529160200191610fad565b820191906000526020600020905b815481529060010190602001808311610f9057829003601f168201915b50505050509050919050565b6000806000838152602001908152602001600020600301549050919050565b6000806000838152602001908152602001600020600601549050919050565b6001600081548092919060010191905055506101406040519081016040528060015481526020018a815260200189815260200188815260200187815260200186815260200185815260200184815260200183815260200160206040519081016040528084815250815250600080888152602001908152602001600020600082015181600001556020820151816001019080519060200190611099929190611227565b5060408201518160020155606082015181600301556080820151816004015560a08201518160050190805190602001906110d4929190611227565b5060c0820151816006015560e08201518160070190805190602001906110fb929190611227565b50610100820151816008019080519060200190611119929190611227565b50610120820151816009016000820151816000019080519060200190611140929190611227565b505050905050505050505050505050565b6000806000838152602001908152602001600020600401549050919050565b60606000808381526020019081526020016000206007018054600181600116156101000203166002900480601f01602080910402602001604051908101604052809291908181526020018280546001816001161561010002031660029004801561121b5780601f106111f05761010080835404028352916020019161121b565b820191906000526020600020905b8154815290600101906020018083116111fe57829003601f168201915b50505050509050919050565b828054600181600116156101000203166002900490600052602060002090601f016020900481019282601f1061126857805160ff1916838001178555611296565b82800160010185558215611296579182015b8281111561129557825182559160200191906001019061127a565b5b5090506112a391906112a7565b5090565b6112c991905b808211156112c55760008160009055506001016112ad565b5090565b905600a165627a7a723058208d0ff1c0288a3625dca41904fc95488bd8ce79e5abd3aab20166f65fb566f1fb0029",
  "source": "pragma solidity ^0.4.2;\r\n\r\ncontract Student{\r\n\r\n    struct student{\r\n        uint id;\r\n        string name;\r\n        uint SSCScore;\r\n        uint HSCScore;\r\n        uint aadhaarNo;\r\n        string dateOfBirth;\r\n        uint annualIncome;\r\n        string education;\r\n        string currentYear;\r\n        scholarship stuScholarship;\r\n    }\r\n\r\n    struct scholarship {\r\n        string scholarshipDetails;\r\n    }\r\n\r\n    mapping(uint => student) public students;\r\n    uint public stuCount;\r\n\r\n    function _setStudentInfo(\r\n        string memory _name, uint SSC, uint HSC, uint aadhaar, string memory dob, uint income, \r\n        string memory education, string memory curYear, string memory sDetails) public{\r\n\r\n        stuCount++;\r\n        students[aadhaar] = student(stuCount, _name, SSC, HSC, aadhaar, dob, income, education, curYear, scholarship(sDetails));\r\n        \r\n    }\r\n\r\n    function getName(uint i) public view returns(string memory){\r\n        return students[i].name;\r\n    }\r\n    \r\n    function getId(uint i) public view returns(uint){\r\n        return students[i].id;\r\n    }\r\n\r\n    function getSSC(uint i) public view returns(uint){\r\n        return students[i].SSCScore;\r\n    }\r\n\r\n    function getHSC(uint i) public view returns(uint){\r\n        return students[i].HSCScore;\r\n    }\r\n\r\n    function getAadhaar(uint i) public view returns(uint){\r\n        return students[i].aadhaarNo;\r\n    }\r\n\r\n    function getDob(uint i) public view returns(string memory){\r\n        return students[i].dateOfBirth;\r\n    }\r\n\r\n    function getIncome(uint i) public view returns(uint){\r\n        return students[i].annualIncome;\r\n    }\r\n\r\n    function getEducation(uint i) public view returns(string memory){\r\n        return students[i].education;\r\n    }\r\n\r\n    function getcurYear(uint i) public view returns(string memory){\r\n        return students[i].currentYear;\r\n    }\r\n\r\n    function getsDetails(uint i) public view returns(string memory){\r\n        return students[i].stuScholarship.scholarshipDetails;\r\n    }\r\n\r\n}\r\n",
  "sourcePath": "F:\\Project\\blockcahin\\blockchainI\\Scholarnet\\contracts\\Student.sol",
  "compiler": {
    "name": "solc",
    "version": "0.4.24+commit.e67f0147.Emscripten.clang"
  },
  "schemaVersion": "2.0.1",
  "updatedAt": "2019-01-06T04:59:06.888Z"
}