{
  "contractName": "Student",
  "abi": [
    {
      "constant": true,
      "inputs": [
        {
          "name": "",
          "type": "uint256"
        }
      ],
      "name": "students",
      "outputs": [
        {
          "name": "id",
          "type": "uint256"
        },
        {
          "name": "name",
          "type": "string"
        },
        {
          "name": "SSCScore",
          "type": "uint256"
        },
        {
          "name": "HSCScore",
          "type": "uint256"
        },
        {
          "name": "adharNo",
          "type": "uint256"
        },
        {
          "name": "dateOfBirth",
          "type": "string"
        },
        {
          "name": "annualIncome",
          "type": "uint256"
        },
        {
          "name": "education",
          "type": "string"
        },
        {
          "name": "currentYear",
          "type": "string"
        },
        {
          "components": [
            {
              "name": "gotScholarship",
              "type": "string"
            },
            {
              "name": "scholarshipDetails",
              "type": "string"
            }
          ],
          "name": "stuScholarship",
          "type": "tuple"
        }
      ],
      "payable": false,
      "stateMutability": "view",
      "type": "function"
    },
    {
      "constant": true,
      "inputs": [],
      "name": "stuCount",
      "outputs": [
        {
          "name": "",
          "type": "uint256"
        }
      ],
      "payable": false,
      "stateMutability": "view",
      "type": "function"
    },
    {
      "constant": false,
      "inputs": [
        {
          "name": "_name",
          "type": "string"
        },
        {
          "name": "SSC",
          "type": "uint256"
        },
        {
          "name": "HSC",
          "type": "uint256"
        },
        {
          "name": "aadhar",
          "type": "uint256"
        },
        {
          "name": "dob",
          "type": "string"
        },
        {
          "name": "income",
          "type": "uint256"
        },
        {
          "name": "education",
          "type": "string"
        },
        {
          "name": "curYear",
          "type": "string"
        },
        {
          "name": "sGot",
          "type": "string"
        },
        {
          "name": "sDetails",
          "type": "string"
        }
      ],
      "name": "_setStudentInfo",
      "outputs": [],
      "payable": false,
      "stateMutability": "nonpayable",
      "type": "function"
    },
    {
      "constant": true,
      "inputs": [
        {
          "name": "i",
          "type": "uint256"
        }
      ],
      "name": "getName",
      "outputs": [
        {
          "name": "",
          "type": "string"
        }
      ],
      "payable": false,
      "stateMutability": "view",
      "type": "function"
    },
    {
      "constant": true,
      "inputs": [
        {
          "name": "i",
          "type": "uint256"
        }
      ],
      "name": "getId",
      "outputs": [
        {
          "name": "",
          "type": "uint256"
        }
      ],
      "payable": false,
      "stateMutability": "view",
      "type": "function"
    },
    {
      "constant": true,
      "inputs": [
        {
          "name": "i",
          "type": "uint256"
        }
      ],
      "name": "getSSC",
      "outputs": [
        {
          "name": "",
          "type": "uint256"
        }
      ],
      "payable": false,
      "stateMutability": "view",
      "type": "function"
    },
    {
      "constant": true,
      "inputs": [
        {
          "name": "i",
          "type": "uint256"
        }
      ],
      "name": "getHSC",
      "outputs": [
        {
          "name": "",
          "type": "uint256"
        }
      ],
      "payable": false,
      "stateMutability": "view",
      "type": "function"
    },
    {
      "constant": true,
      "inputs": [
        {
          "name": "i",
          "type": "uint256"
        }
      ],
      "name": "getAdhar",
      "outputs": [
        {
          "name": "",
          "type": "uint256"
        }
      ],
      "payable": false,
      "stateMutability": "view",
      "type": "function"
    },
    {
      "constant": true,
      "inputs": [
        {
          "name": "i",
          "type": "uint256"
        }
      ],
      "name": "getDob",
      "outputs": [
        {
          "name": "",
          "type": "string"
        }
      ],
      "payable": false,
      "stateMutability": "view",
      "type": "function"
    },
    {
      "constant": true,
      "inputs": [
        {
          "name": "i",
          "type": "uint256"
        }
      ],
      "name": "getIncome",
      "outputs": [
        {
          "name": "",
          "type": "uint256"
        }
      ],
      "payable": false,
      "stateMutability": "view",
      "type": "function"
    },
    {
      "constant": true,
      "inputs": [
        {
          "name": "i",
          "type": "uint256"
        }
      ],
      "name": "getEducation",
      "outputs": [
        {
          "name": "",
          "type": "string"
        }
      ],
      "payable": false,
      "stateMutability": "view",
      "type": "function"
    },
    {
      "constant": true,
      "inputs": [
        {
          "name": "i",
          "type": "uint256"
        }
      ],
      "name": "getcurYear",
      "outputs": [
        {
          "name": "",
          "type": "string"
        }
      ],
      "payable": false,
      "stateMutability": "view",
      "type": "function"
    },
    {
      "constant": true,
      "inputs": [
        {
          "name": "i",
          "type": "uint256"
        }
      ],
      "name": "getScholarship",
      "outputs": [
        {
          "name": "",
          "type": "string"
        }
      ],
      "payable": false,
      "stateMutability": "view",
      "type": "function"
    },
    {
      "constant": true,
      "inputs": [
        {
          "name": "i",
          "type": "uint256"
        }
      ],
      "name": "getsDetails",
      "outputs": [
        {
          "name": "",
          "type": "string"
        }
      ],
      "payable": false,
      "stateMutability": "view",
      "type": "function"
    }
  ],
  "bytecode": "0x608060405234801561001057600080fd5b5061156f806100206000396000f3006080604052600436106100d0576000357c0100000000000000000000000000000000000000000000000000000000900463ffffffff16806306ead22e146100d55780632013fd1e146102e95780632160fc021461038f57806330b62606146103ba5780634965c63e146103fb578063545a153a146104a15780636058d703146104e25780636b8ff574146105885780636ff7e60a1461062e5780637ccd60771461066f5780638223021e1461085e578063857915101461089f578063a3bf4f4c146108e0578063f96e32f814610986575b600080fd5b3480156100e157600080fd5b5061010060048036038101908080359060200190929190505050610a2c565b604051808b8152602001806020018a815260200189815260200188815260200180602001878152602001806020018060200186815260200185810385528e818151815260200191508051906020019080838360005b83811015610170578082015181840152602081019050610155565b50505050905090810190601f16801561019d5780820380516001836020036101000a031916815260200191505b5085810384528a818151815260200191508051906020019080838360005b838110156101d65780820151818401526020810190506101bb565b50505050905090810190601f1680156102035780820380516001836020036101000a031916815260200191505b50858103835288818151815260200191508051906020019080838360005b8381101561023c578082015181840152602081019050610221565b50505050905090810190601f1680156102695780820380516001836020036101000a031916815260200191505b50858103825287818151815260200191508051906020019080838360005b838110156102a2578082015181840152602081019050610287565b50505050905090810190601f1680156102cf5780820380516001836020036101000a031916815260200191505b509e50505050505050505050505050505060405180910390f35b3480156102f557600080fd5b5061031460048036038101908080359060200190929190505050610e2e565b6040518080602001828103825283818151815260200191508051906020019080838360005b83811015610354578082015181840152602081019050610339565b50505050905090810190601f1680156103815780820380516001836020036101000a031916815260200191505b509250505060405180910390f35b34801561039b57600080fd5b506103a4610ee5565b6040518082815260200191505060405180910390f35b3480156103c657600080fd5b506103e560048036038101908080359060200190929190505050610eeb565b6040518082815260200191505060405180910390f35b34801561040757600080fd5b5061042660048036038101908080359060200190929190505050610f0a565b6040518080602001828103825283818151815260200191508051906020019080838360005b8381101561046657808201518184015260208101905061044b565b50505050905090810190601f1680156104935780820380516001836020036101000a031916815260200191505b509250505060405180910390f35b3480156104ad57600080fd5b506104cc60048036038101908080359060200190929190505050610fc1565b6040518082815260200191505060405180910390f35b3480156104ee57600080fd5b5061050d60048036038101908080359060200190929190505050610fe0565b6040518080602001828103825283818151815260200191508051906020019080838360005b8381101561054d578082015181840152602081019050610532565b50505050905090810190601f16801561057a5780820380516001836020036101000a031916815260200191505b509250505060405180910390f35b34801561059457600080fd5b506105b36004803603810190808035906020019092919050505061109a565b6040518080602001828103825283818151815260200191508051906020019080838360005b838110156105f35780820151818401526020810190506105d8565b50505050905090810190601f1680156106205780820380516001836020036101000a031916815260200191505b509250505060405180910390f35b34801561063a57600080fd5b5061065960048036038101908080359060200190929190505050611151565b6040518082815260200191505060405180910390f35b34801561067b57600080fd5b5061085c600480360381019080803590602001908201803590602001908080601f0160208091040260200160405190810160405280939291908181526020018383808284378201915050505050509192919290803590602001909291908035906020019092919080359060200190929190803590602001908201803590602001908080601f016020809104026020016040519081016040528093929190818152602001838380828437820191505050505050919291929080359060200190929190803590602001908201803590602001908080601f0160208091040260200160405190810160405280939291908181526020018383808284378201915050505050509192919290803590602001908201803590602001908080601f0160208091040260200160405190810160405280939291908181526020018383808284378201915050505050509192919290803590602001908201803590602001908080601f0160208091040260200160405190810160405280939291908181526020018383808284378201915050505050509192919290803590602001908201803590602001908080601f0160208091040260200160405190810160405280939291908181526020018383808284378201915050505050509192919290505050611170565b005b34801561086a57600080fd5b50610889600480360381019080803590602001909291905050506112ef565b6040518082815260200191505060405180910390f35b3480156108ab57600080fd5b506108ca6004803603810190808035906020019092919050505061130e565b6040518082815260200191505060405180910390f35b3480156108ec57600080fd5b5061090b6004803603810190808035906020019092919050505061132d565b6040518080602001828103825283818151815260200191508051906020019080838360005b8381101561094b578082015181840152602081019050610930565b50505050905090810190601f1680156109785780820380516001836020036101000a031916815260200191505b509250505060405180910390f35b34801561099257600080fd5b506109b1600480360381019080803590602001909291905050506113e7565b6040518080602001828103825283818151815260200191508051906020019080838360005b838110156109f15780820151818401526020810190506109d6565b50505050905090810190601f168015610a1e5780820380516001836020036101000a031916815260200191505b509250505060405180910390f35b6000602052806000526040600020600091509050806000015490806001018054600181600116156101000203166002900480601f016020809104026020016040519081016040528092919081815260200182805460018160011615610100020316600290048015610ade5780601f10610ab357610100808354040283529160200191610ade565b820191906000526020600020905b815481529060010190602001808311610ac157829003601f168201915b505050505090806002015490806003015490806004015490806005018054600181600116156101000203166002900480601f016020809104026020016040519081016040528092919081815260200182805460018160011615610100020316600290048015610b8e5780601f10610b6357610100808354040283529160200191610b8e565b820191906000526020600020905b815481529060010190602001808311610b7157829003601f168201915b505050505090806006015490806007018054600181600116156101000203166002900480601f016020809104026020016040519081016040528092919081815260200182805460018160011615610100020316600290048015610c325780601f10610c0757610100808354040283529160200191610c32565b820191906000526020600020905b815481529060010190602001808311610c1557829003601f168201915b505050505090806008018054600181600116156101000203166002900480601f016020809104026020016040519081016040528092919081815260200182805460018160011615610100020316600290048015610cd05780601f10610ca557610100808354040283529160200191610cd0565b820191906000526020600020905b815481529060010190602001808311610cb357829003601f168201915b50505050509080600901604080519081016040529081600082018054600181600116156101000203166002900480601f016020809104026020016040519081016040528092919081815260200182805460018160011615610100020316600290048015610d7e5780601f10610d5357610100808354040283529160200191610d7e565b820191906000526020600020905b815481529060010190602001808311610d6157829003601f168201915b50505050508152602001600182018054600181600116156101000203166002900480601f016020809104026020016040519081016040528092919081815260200182805460018160011615610100020316600290048015610e205780601f10610df557610100808354040283529160200191610e20565b820191906000526020600020905b815481529060010190602001808311610e0357829003601f168201915b50505050508152505090508a565b60606000808381526020019081526020016000206005018054600181600116156101000203166002900480601f016020809104026020016040519081016040528092919081815260200182805460018160011615610100020316600290048015610ed95780601f10610eae57610100808354040283529160200191610ed9565b820191906000526020600020905b815481529060010190602001808311610ebc57829003601f168201915b50505050509050919050565b60015481565b6000806000838152602001908152602001600020600201549050919050565b60606000808381526020019081526020016000206008018054600181600116156101000203166002900480601f016020809104026020016040519081016040528092919081815260200182805460018160011615610100020316600290048015610fb55780601f10610f8a57610100808354040283529160200191610fb5565b820191906000526020600020905b815481529060010190602001808311610f9857829003601f168201915b50505050509050919050565b6000806000838152602001908152602001600020600001549050919050565b60606000808381526020019081526020016000206009016001018054600181600116156101000203166002900480601f01602080910402602001604051908101604052809291908181526020018280546001816001161561010002031660029004801561108e5780601f106110635761010080835404028352916020019161108e565b820191906000526020600020905b81548152906001019060200180831161107157829003601f168201915b50505050509050919050565b60606000808381526020019081526020016000206001018054600181600116156101000203166002900480601f0160208091040260200160405190810160405280929190818152602001828054600181600116156101000203166002900480156111455780601f1061111a57610100808354040283529160200191611145565b820191906000526020600020905b81548152906001019060200180831161112857829003601f168201915b50505050509050919050565b6000806000838152602001908152602001600020600301549050919050565b6001600081548092919060010191905055506101406040519081016040528060015481526020018b81526020018a8152602001898152602001888152602001878152602001868152602001858152602001848152602001604080519081016040528085815260200184815250815250600080600154815260200190815260200160002060008201518160000155602082015181600101908051906020019061121992919061149e565b5060408201518160020155606082015181600301556080820151816004015560a082015181600501908051906020019061125492919061149e565b5060c0820151816006015560e082015181600701908051906020019061127b92919061149e565b5061010082015181600801908051906020019061129992919061149e565b506101208201518160090160008201518160000190805190602001906112c092919061149e565b5060208201518160010190805190602001906112dd92919061149e565b50505090505050505050505050505050565b6000806000838152602001908152602001600020600401549050919050565b6000806000838152602001908152602001600020600601549050919050565b60606000808381526020019081526020016000206009016000018054600181600116156101000203166002900480601f0160208091040260200160405190810160405280929190818152602001828054600181600116156101000203166002900480156113db5780601f106113b0576101008083540402835291602001916113db565b820191906000526020600020905b8154815290600101906020018083116113be57829003601f168201915b50505050509050919050565b60606000808381526020019081526020016000206007018054600181600116156101000203166002900480601f0160208091040260200160405190810160405280929190818152602001828054600181600116156101000203166002900480156114925780601f1061146757610100808354040283529160200191611492565b820191906000526020600020905b81548152906001019060200180831161147557829003601f168201915b50505050509050919050565b828054600181600116156101000203166002900490600052602060002090601f016020900481019282601f106114df57805160ff191683800117855561150d565b8280016001018555821561150d579182015b8281111561150c5782518255916020019190600101906114f1565b5b50905061151a919061151e565b5090565b61154091905b8082111561153c576000816000905550600101611524565b5090565b905600a165627a7a72305820ceaf7fb4678f11d8556f1af98d38ece9429ce8f84a31ed2c2c7d5cf19cbdb8540029",
  "source": "pragma solidity ^0.4.2;\r\n\r\ncontract Student{\r\n\r\n    struct student{\r\n        uint id;\r\n        string name;\r\n        uint SSCScore;\r\n        uint HSCScore;\r\n        uint adharNo;\r\n        string dateOfBirth;\r\n        uint annualIncome;\r\n        string education;\r\n        string currentYear;\r\n        scholarship stuScholarship;\r\n    }\r\n\r\n    struct scholarship {\r\n        string gotScholarship;\r\n        string scholarshipDetails;\r\n    }\r\n\r\n    mapping(uint => student) public students;\r\n    uint public stuCount;\r\n\r\n    function _setStudentInfo(\r\n        string memory _name, uint SSC, uint HSC, uint aadhar, string memory dob, uint income, \r\n        string memory education, string memory curYear, string memory sGot, string memory sDetails) public{\r\n\r\n        stuCount++;\r\n        students[stuCount] = student(stuCount, _name, SSC, HSC, aadhar, dob, income, education, curYear, scholarship(sGot,sDetails));\r\n        \r\n    }\r\n\r\n    function getName(uint i) public view returns(string memory){\r\n        return students[i].name;\r\n    }\r\n    \r\n    function getId(uint i) public view returns(uint){\r\n        return students[i].id;\r\n    }\r\n\r\n    function getSSC(uint i) public view returns(uint){\r\n        return students[i].SSCScore;\r\n    }\r\n\r\n    function getHSC(uint i) public view returns(uint){\r\n        return students[i].HSCScore;\r\n    }\r\n\r\n    function getAdhar(uint i) public view returns(uint){\r\n        return students[i].adharNo;\r\n    }\r\n\r\n    function getDob(uint i) public view returns(string memory){\r\n        return students[i].dateOfBirth;\r\n    }\r\n\r\n    function getIncome(uint i) public view returns(uint){\r\n        return students[i].annualIncome;\r\n    }\r\n\r\n    function getEducation(uint i) public view returns(string memory){\r\n        return students[i].education;\r\n    }\r\n\r\n    function getcurYear(uint i) public view returns(string memory){\r\n        return students[i].currentYear;\r\n    }\r\n\r\n    function getScholarship(uint i) public view returns(string memory){\r\n        return students[i].stuScholarship.gotScholarship;\r\n    }\r\n\r\n    function getsDetails(uint i) public view returns(string memory){\r\n        return students[i].stuScholarship.scholarshipDetails;\r\n    }\r\n\r\n}\r\n",
  "sourcePath": "F:\\Project\\blockcahin\\blockchainI\\Scholarnet\\contracts\\Student.sol",
  "compiler": {
    "name": "solc",
    "version": "0.4.24+commit.e67f0147.Emscripten.clang"
  },
  "schemaVersion": "2.0.1",
  "updatedAt": "2019-01-02T07:58:30.322Z"
}